{
  "contractName": "TodoList",
  "abi": [
    {
      "inputs": [
        {
          "internalType": "string",
          "name": "_content",
          "type": "string"
        }
      ],
      "name": "createTask",
      "outputs": [],
      "stateMutability": "nonpayable",
      "type": "function"
    },
    {
      "inputs": [
        {
          "internalType": "uint256",
          "name": "_id",
          "type": "uint256"
        }
      ],
      "name": "toggleCompleted",
      "outputs": [],
      "stateMutability": "nonpayable",
      "type": "function"
    },
    {
      "inputs": [],
      "name": "getTasks",
      "outputs": [
        {
          "components": [
            {
              "internalType": "uint256",
              "name": "id",
              "type": "uint256"
            },
            {
              "internalType": "string",
              "name": "content",
              "type": "string"
            },
            {
              "internalType": "bool",
              "name": "completed",
              "type": "bool"
            }
          ],
          "internalType": "struct TodoList.Task[]",
          "name": "",
          "type": "tuple[]"
        }
      ],
      "stateMutability": "view",
      "type": "function",
      "constant": true
    },
    {
      "inputs": [
        {
          "internalType": "uint256",
          "name": "_id",
          "type": "uint256"
        }
      ],
      "name": "deleteTask",
      "outputs": [],
      "stateMutability": "nonpayable",
      "type": "function"
    }
  ],
  "bytecode": "0x608060405234801561001057600080fd5b50610b20806100206000396000f3fe608060405234801561001057600080fd5b506004361061004c5760003560e01c806304a87e3814610051578063111002aa1461006f578063455f50241461008b578063560f3192146100a7575b600080fd5b6100596100c3565b60405161006691906108d1565b60405180910390f35b610089600480360381019061008491906106f7565b610215565b005b6100a560048036038101906100a09190610738565b610327565b005b6100c160048036038101906100bc9190610738565b6104e1565b005b60606000803373ffffffffffffffffffffffffffffffffffffffff1673ffffffffffffffffffffffffffffffffffffffff168152602001908152602001600020805480602002602001604051908101604052809291908181526020016000905b8282101561020c57838290600052602060002090600302016040518060600160405290816000820154815260200160018201805461016090610a32565b80601f016020809104026020016040519081016040528092919081815260200182805461018c90610a32565b80156101d95780601f106101ae576101008083540402835291602001916101d9565b820191906000526020600020905b8154815290600101906020018083116101bc57829003601f168201915b505050505081526020016002820160009054906101000a900460ff16151515158152505081526020019060010190610123565b50505050905090565b6000803373ffffffffffffffffffffffffffffffffffffffff1673ffffffffffffffffffffffffffffffffffffffff16815260200190815260200160002060405180606001604052806000803373ffffffffffffffffffffffffffffffffffffffff1673ffffffffffffffffffffffffffffffffffffffff168152602001908152602001600020805490508152602001838152602001600015158152509080600181540180825580915050600190039060005260206000209060030201600090919091909150600082015181600001556020820151816001019080519060200190610301929190610597565b5060408201518160020160006101000a81548160ff021916908315150217905550505050565b6000803373ffffffffffffffffffffffffffffffffffffffff1673ffffffffffffffffffffffffffffffffffffffff1681526020019081526020016000208054905081106103aa576040517f08c379a00000000000000000000000000000000000000000000000000000000081526004016103a1906108f3565b60405180910390fd5b6000803373ffffffffffffffffffffffffffffffffffffffff1673ffffffffffffffffffffffffffffffffffffffff1681526020019081526020016000208181548110610420577f4e487b7100000000000000000000000000000000000000000000000000000000600052603260045260246000fd5b906000526020600020906003020160020160009054906101000a900460ff16156000803373ffffffffffffffffffffffffffffffffffffffff1673ffffffffffffffffffffffffffffffffffffffff16815260200190815260200160002082815481106104b6577f4e487b7100000000000000000000000000000000000000000000000000000000600052603260045260246000fd5b906000526020600020906003020160020160006101000a81548160ff02191690831515021790555050565b6000803373ffffffffffffffffffffffffffffffffffffffff1673ffffffffffffffffffffffffffffffffffffffff1681526020019081526020016000208181548110610557577f4e487b7100000000000000000000000000000000000000000000000000000000600052603260045260246000fd5b906000526020600020906003020160008082016000905560018201600061057e919061061d565b6002820160006101000a81549060ff0219169055505050565b8280546105a390610a32565b90600052602060002090601f0160209004810192826105c5576000855561060c565b82601f106105de57805160ff191683800117855561060c565b8280016001018555821561060c579182015b8281111561060b5782518255916020019190600101906105f0565b5b509050610619919061065d565b5090565b50805461062990610a32565b6000825580601f1061063b575061065a565b601f016020900490600052602060002090810190610659919061065d565b5b50565b5b8082111561067657600081600090555060010161065e565b5090565b600061068d61068884610944565b610913565b9050828152602081018484840111156106a557600080fd5b6106b08482856109f0565b509392505050565b600082601f8301126106c957600080fd5b81356106d984826020860161067a565b91505092915050565b6000813590506106f181610ad3565b92915050565b60006020828403121561070957600080fd5b600082013567ffffffffffffffff81111561072357600080fd5b61072f848285016106b8565b91505092915050565b60006020828403121561074a57600080fd5b6000610758848285016106e2565b91505092915050565b600061076d8383610872565b905092915050565b600061078082610984565b61078a81856109a7565b93508360208202850161079c85610974565b8060005b858110156107d857848403895281516107b98582610761565b94506107c48361099a565b925060208a019950506001810190506107a0565b50829750879550505050505092915050565b6107f3816109da565b82525050565b60006108048261098f565b61080e81856109b8565b935061081e8185602086016109ff565b61082781610ac2565b840191505092915050565b600061083f6013836109c9565b91507f5461736b20646f6573206e6f74206578697374000000000000000000000000006000830152602082019050919050565b600060608301600083015161088a60008601826108c2565b50602083015184820360208601526108a282826107f9565b91505060408301516108b760408601826107ea565b508091505092915050565b6108cb816109e6565b82525050565b600060208201905081810360008301526108eb8184610775565b905092915050565b6000602082019050818103600083015261090c81610832565b9050919050565b6000604051905081810181811067ffffffffffffffff8211171561093a57610939610a93565b5b8060405250919050565b600067ffffffffffffffff82111561095f5761095e610a93565b5b601f19601f8301169050602081019050919050565b6000819050602082019050919050565b600081519050919050565b600081519050919050565b6000602082019050919050565b600082825260208201905092915050565b600082825260208201905092915050565b600082825260208201905092915050565b60008115159050919050565b6000819050919050565b82818337600083830152505050565b60005b83811015610a1d578082015181840152602081019050610a02565b83811115610a2c576000848401525b50505050565b60006002820490506001821680610a4a57607f821691505b60208210811415610a5e57610a5d610a64565b5b50919050565b7f4e487b7100000000000000000000000000000000000000000000000000000000600052602260045260246000fd5b7f4e487b7100000000000000000000000000000000000000000000000000000000600052604160045260246000fd5b6000601f19601f8301169050919050565b610adc816109e6565b8114610ae757600080fd5b5056fea2646970667358221220cf509914e54519bfd16bcf97db7035adf4cf03fae4d83dcb7f9efbe65c37c4cb64736f6c63430008000033",
  "immutableReferences": {},
  "source": "// SPDX-License-Identifier: MIT\npragma solidity ^0.8.0;\n\ncontract TodoList {\n    struct Task {\n        uint id;\n        string content;\n        bool completed;\n    }\n\n    mapping(address => Task[]) private tasks;\n\n    function createTask(string memory _content) public {\n        tasks[msg.sender].push(Task(tasks[msg.sender].length, _content, false));\n    }\n\n    function toggleCompleted(uint _id) public {\n        require(_id < tasks[msg.sender].length, \"Task does not exist\");\n        tasks[msg.sender][_id].completed = !tasks[msg.sender][_id].completed;\n    }\n\n    function getTasks() public view returns (Task[] memory) {\n        return tasks[msg.sender];\n    }\n\nfunction deleteTask(uint _id) public {\n    delete tasks[msg.sender][_id];\n}\n}",
  "sourcePath": "/workspaces/3OH-DAPP/todo-dapp/contracts/TodoList.sol",
  "compiler": {
    "name": "solc",
    "version": "0.8.0+commit.c7dfd78e.Emscripten.clang"
  },
  "schemaVersion": "3.4.16",
  "updatedAt": "2024-07-23T21:20:30.559Z",
  "networkType": "ethereum",
  "devdoc": {
    "kind": "dev",
    "methods": {},
    "version": 1
  },
  "userdoc": {
    "kind": "user",
    "methods": {},
    "version": 1
  }
}